:060000000A128A11122809
:10000800FE00030E83120313E1000408E2000A084D
:10001800E3007F08E4000A128A15CE2E0A128A111C
:1000280015280A128A11FD270A128A11EC000A12F1
:100038008A11FE270A128A11ED0083179030840076
:10004800A0300A168A11D3250A128A118313A03008
:100058008400DE300A168A11D3250A128A11E501B6
:10006800E601E701E801E901EA01EB0183010A126F
:100078008A11F42C83120313C80037308400A0308F
:10008800B3000408B4001130B500330884008313AA
:100098000008B600B30A3408840036088000B40AA1
:1000A800B50B4928B42A0A168A119B260A128A1106
:1000B800D9300A168A11C6250A128A118312031327
:1000C800D7005708B30001300310B30DFF3E031DDE
:1000D80068280310330D831603135C0784005D083A
:1000E80003185D0A83120313FF000A128A11002302
:1000F8000A128A11B4000A128A1100230A128A11FC
:10010800B5003408F2003508F3000A128A152B22CC
:100118000A128A11D62A8B16D62A8B16D62A0A16BE
:100128008A119B260A128A11831203136A08031D77
:100138009E289F28A9283F30F2008430F3000A1235
:100148008A152B220A128A11D62A6B08CD004D086F
:10015800F00067080A168A1140260A128A118312CB
:100168000313B3003307103ECE00D10120294E08F7
:100178000A168A1128270A128A1172088312031391
:10018800CC007108CB000A30F0000030F1004C08B8
:10019800F3004B08F2000A128A15E7210A128A11A5
:1001A800710883120313D4007008D3000A30F700D3
:1001B8000030F8004C08FA004B08F9000A128A15BA
:1001C80031210A128A11780883120313D60077089E
:1001D800D500B330A0008430A1005108013EA20030
:1001E800003003180130A3005408A5005308A400E8
:1001F8005608A7005508A60037300A128A113D266E
:100208000A128A118312031351080A128A11DB2277
:100218000A128A113730F2000030F3000A128A15E8
:100228002B220A128A11831203134E08023ECE00B3
:100238000130FF007F08D1074D085102031C252912
:100248002629BB28D62A0A168A119B260A128A1141
:1002580006300A168A1128270A128A117208831290
:100268000313CA007108C90004300A168A11282726
:100278000A128A11720883120313D0007108CF0082
:100288004F0A031D4B29500A031D4B294C29562997
:100298003F30F2008430F3000A128A152B220A122A
:1002A8008A11D62A0A30F0000030F1004A08F3001B
:1002B8004908F2000A128A15E7210A128A11710800
:1002C80083120313D4007008D3000A30F7000030FB
:1002D800F8004A08FA004908F9000A128A1531217B
:1002E8000A128A11780883120313D6007708D500FA
:1002F8008D30A0008430A1005408A3005308A20048
:100308005608A5005508A40037300A128A113D2660
:100318000A128A113730F2000030F3000A128A15E7
:100328002B220A128A11F20102300A168A11D227E8
:100338000A128A110A30F0000030F1008312031308
:100348005008F3004F08F2000A128A15E7210A1232
:100358008A11710883120313D4007008D3000A307D
:10036800F7000030F8005008FA004F08F9000A12A8
:100378008A1531210A128A11780883120313D600CC
:100388007708D5008330A0008430A1005408A3006A
:100398005308A2005608A5005508A40037300A12D1
:1003A8008A113D260A128A113730F2000030F30014
:1003B8000A128A152B220A128A11D62A0A168A11BB
:1003C8009B260A128A112730F2008430F3000A12A1
:1003D8008A152B220A128A11F001F00A00300A1637
:1003E8008A1178270A128A11F00108300A168A1130
:1003F80078270A128A111230F2000030F300023016
:100408000A168A111A260A128A11FF30F200FF30E2
:10041800F30004300A168A111A260A128A110030CB
:10042800F200F30006300A168A111A260A128A11F7
:1004380083120313D201F0015208103E0A168A11E2
:1004480078270A128A110130FF007F0883120313EC
:10045800D207F0305202031C322A332A1F2A0A1606
:100468008A119B260A128A113330F2008430F30075
:100478000A128A152B220A128A11D62ACF300A1696
:100488008A11C6250A128A1183120313D7000A1685
:100498008A119B260A128A11831203135708B30084
:1004A80001300310B30DFF3E031D552A0310330D11
:1004B800831603135207840053080318530A831240
:1004C8000313FF000A128A1100230A128A11B400CA
:1004D8000A128A1100230A128A11B5003408F200A0
:1004E8003508F3000A128A152B220A128A11D62A15
:1004F8000A168A119B260A128A11D4300A168A1102
:10050800C6250A128A1183120313D7005708B300AD
:1005180001300310B30DFF3E031D8D2A0310330D68
:10052800831603135707840058080318580A8312C0
:100538000313FF000A128A1100230A128A11B40059
:100548000A128A1100230A128A11B5003408F2002F
:100558003508F3000A128A152B220A128A11D62AA4
:100568004808B300B4013408003A0319BC2AD62A53
:100578003308013A03195728033A03198F28013A17
:1005880003199128073A03199328013A03192729CF
:10059800033A0319E229013A0319422A0F3A0319C7
:1005A8007C2AD62A831203134808E8000800F700BB
:1005B8000314770D1C3E840083300318013E831218
:1005C8000313FF000A128A1100230A128A11F2008B
:1005D8007708F60076071C3E840083300318013E36
:1005E800FF000A128A1100230A128A110A168A11B8
:1005F800D2270A128A110800FF1B0A2B83137F18BF
:1006080083170008840A0319FF0A08007F087F3946
:100618008A000408840A0319FF0A8200013400349E
:100628000A34003464340034E83403341034273492
:1006380001340034013408340234003402340834FC
:1006480000340134023404340034003480343F343C
:100658001834723431343F34F034FD3475343E3458
:100668004734583463343D34583495341D343C345D
:100678008234C434AE343A34A8347834213439342A
:10068800EF34933480343734A0349234A73435347B
:1006980046345634153434340034003400340034CD
:1006A800C434FF347F343F348034EF34FF34BE34F5
:1006B8009034E134A9343E34EC3482347634BE3498
:1006C8008234AD342B343E340E343C34C334BD3420
:1006D8008734D13413343D3441347834D334BB3483
:1006E800E634843412340034CA348434B4340034E4
:1006F800D13484341C340234EC3484343834043433
:10070800D834843430342A34DF34843490347E341A
:10071800C33484342034FD345734843400340034F2
:10072800F2348334013400344B34843402340034DA
:100738009734843403340034A134843404340034CA
:10074800D234833405340034E2348334063400343C
:10075800AA348434013400346234843402340034DA
:100768006D348434033400347834843404340034ED
:100778007A340134313431342F34303439342F342D
:10078800323430343234333420342D342034763417
:1007980031342E34363430342D3400343634293460
:1007A800543465346D3470346F34203441346D34CE
:1007B8006F34733474347234613400343734293408
:1007C8005134753461346E3474342E345334653492
:1007D8006E3473346F3472347334003432342934E1
:1007E8004D346F346E34693474342F344734723472
:1007F80061347634613400344D3465346D346F348B
:10080800723469346134203443346834653469346B
:100818006134003449346E34693463346934613482
:100828006E3464346F342E342E342E340034503405
:1008380072346F346E3474346F342134203420347D
:100848002034203400344C3469346D3470346134CD
:100858006E3464346F342E342E342E3400345434D1
:10086800753464346F3420344C3469346D347034E6
:100878006F342E3400344E3465346E346834753435
:100888006D3420344434613464346F340034333488
:100898002934563465347234203454346F34643413
:1008A8006F3473340034313429344D346F346E343A
:1008B800693474346F34723461340034323420341F
:1008C800733465346E3473346F347234653473340E
:1008D800003433342034733465346E3473346F34F5
:1008E80072346534733400343434203473346534EA
:1008F8006E3473346F3472346534733400344D3469
:1009080069346E343D34253464342E3425346434EB
:1009180000344D34613478343D34253464342E3415
:10092800253464340034343429344D346134783413
:100938002F344D3469346E340034353429344C3412
:1009480069346D3470346134723400343134203495
:10095800733465346E3473346F3472340034253430
:1009680064343D34253464342E34253464340034FE
:10097800703470346D343D3425347534003431347A
:10098800203468346F347234613400343134303494
:1009980020347334653467340034333430342034CD
:1009A80073346534673400343134303420346D3472
:1009B80069346E3400343334303420346D3469345F
:1009C8006E34003431342034733465346734003481
:1009D800313420346D3469346E3400344E3400348C
:1009E8000A168A11CD260A128A110A128A156B2153
:1009F8000A128A11BE3083160313E3008330E40021
:100A08000A128A15A1240A128A11F23083160313D6
:100A1800E3008430E4000A128A15A1240A128A111C
:100A280083160313E30102300A128A15FA200A1208
:100A38008A110E3083160313E3008430E4000A128F
:100A48008A15A1240A128A110A168A11B4260A12D2
:100A58008A110A168A11F1250A128A1183160313BC
:100A68009816831203139817023083160317A400ED
:100A78000430A300B930A200A20B402DA30B402DD7
:100A8800A40B402D472D0C300A168A11E6260A12AF
:100A98008A115D3A0319512D522DC72D8312031364
:100AA800EB01EB0A83160313CE01CE0A1230831230
:100AB8000313E90083160313E10108300A128A15AB
:100AC80058200A128A11831203136B088316031322
:100AD800E10000300A128A1558200A128A1183127E
:100AE8000313690883160317A200A30122088316BB
:100AF8000313E30083160317230883160313E40084
:100B080002300A168A116C260A128A11FF308316DF
:100B18000313E300FF30E40004300A168A116C2640
:100B28000A128A11003083160313E300E40006302A
:100B38000A168A116C260A128A1183160317A6014F
:100B480083160313E101831603172608103E0A12C1
:100B58008A1558200A128A110130FF007F0883166F
:100B68000317A607F0302602031CBB2DBC2DA42DAD
:100B78005D3083160313E1000C300A128A155820E1
:100B88000A128A11F52D08300A168A11E6260A1269
:100B98008A1183120313EA0001300A168A11E62625
:100BA8000A128A1183160317A5002508A200A301BB
:100BB800220883160313E1008316031723088316FC
:100BC8000313E200D4300A128A15E5250A128A11A5
:100BD80000300A168A11E6260A128A1183120313B4
:100BE800EB00903083160313E1008330E2000730F6
:100BF800E300D9300A168A1183260A128A11AC300A
:100C080083160313E1008330E2000430E300D4309C
:100C18000A168A1183260A128A117430831603135E
:100C2800E1008330E2000730E300CF300A168A1172
:100C380083260A128A1183160313E30102300A126B
:100C48008A15FA200A128A111B3083160313E3004F
:100C58008430E4000A128A15A1240A128A110A12A1
:100C68008A158D200A128A118B17392E0A128A11B9
:100C7800122883120313B1002230AD00272F25302C
:100C880032060319482E492E532E310884003208A3
:100C9800831380000130FF007F08B107272FAE01C2
:100CA800572E2E177D2E2108A9002008A800A00A7B
:100CB8000319A10A2908FF00280884000A128A11CA
:100CC80000230A128A11B200AA00AB012B08003ACD
:100CD80003196F2E272F2A08003A03193D2F643A6B
:100CE80003197D2E0D3A03197D2E1C3A0319552E32
:100CF800272F2E1B802E812E9B2E2D0884008313D8
:100D08000008AF00840A0008B0000230FF007F0826
:100D1800AD07B01F902E912EA72E0330FF007F083D
:100D2800AE04AF09B009AF0A0319B00AA72E2D08FF
:100D3800840083130008AF00840A0008B000023062
:100D4800FF007F08AD07B201B20A3208A8002807E1
:100D5800123E840083300318013EFF000A128A11F4
:100D680000230A128A11A9000A128A1100230A1202
:100D78008A11AA002A083002031DC42E29082F024E
:100D88000318C72EC82EC92ED32E0130FF007F08A6
:100D9800B20705303206031DD22ED32EA92E2E08F7
:100DA80003390319D82ED92EE22E310884002D30AC
:100DB800831380000130FF007F08B1073208AC00C0
:100DC8001E2F0A30F7000030F8002C08A80028076A
:100DD800123E840083300318013EFF000A128A1174
:100DE80000230A128A11F0000A128A1100230A123B
:100DF8008A11F1003008F3002F08F2000A128A1550
:100E0800E7210A128A117108FA007008F9000A121B
:100E18008A1531210A128A117708303E831203138A
:100E2800B200310884003208831380000130FF00CB
:100E38007F08B107FF30FF007F08AC072C0A031DAD
:100E4800262F272FE52E2108A9002008A800A00A90
:100E58000319A10A2908FF00280884000A128A1128
:100E680000230A128A11B2003208031D3C2F3D2FBD
:100E7800432E310884008313800108008312031372
:100E8800DA00DA2FD9300A168A112D260A128A11A9
:100E980083120313D800D81B522F532FED2F013084
:100EA8000A128A113E200A128A11ED2FD9300A122D
:100EB8008A1503200A128A1183120313D800D81B3B
:100EC800662F672FED2F01300A128A113E200A1271
:100ED8008A11ED2FD9300A168A11C6250A128A11ED
:100EE80083120313DB00D9300A168A11DB250A1294
:100EF8008A11B92F0A168A11A5270A128A110230F7
:100F08000A128A113E200A128A11ED2F0A128A1536
:100F18005A270A128A1103300A128A113E200A122D
:100F28008A11ED2F04300A128A113E200A128A1102
:100F3800ED2F05300A128A113E200A128A11ED2F70
:100F480006300A128A113E200A128A11ED2F073044
:100F58000A128A113E200A128A11ED2F08300A124D
:100F68008A113E200A128A11ED2F831203135B089F
:100F7800D800D9015908003A0319C32FED2F580892
:100F8800003A03197E2F013A03198A2F033A0319ED
:100F9800962F013A03199D2F073A0319A42F013AF6
:100FA8000319AB2F033A0319B22FED2F5A08D800B3
:100FB800D9015908003A0319E22FED2F5808013AD0
:100FC80003196E2F023A0319462F073A03195A2FAD
:100FD800ED2F0800FC0002307C06031DF42FF52FCE
:100FE800FC2F8B1201300A128A113E200A128A1134
:060FF8000800FF34FF3485
:10100600F2007208023E840083130008FF3EF000DF
:10101600FF3003180030F100720A84007108803A2C
:10102600803C031D18287008000203181B281C2882
:1010360027280130FF00720A84007F088313800787
:10104600720A840000082828FF3008007B08F10097
:101056007A08F0007908F3007808F2000A128A1577
:10106600D1230A128A15710883120313A30070088C
:10107600A2007B08F1007A08F0007908F3007808EE
:10108600F2000A128A15C2220A128A157108831200
:101096000313A1007008A0002308FB002208FA0031
:1010A6002108F9002008F800080083160313E2005F
:1010B600831603178C18602861285B288316031390
:1010C6006208831203178D008316031361088312C7
:1010D60003178C003F30FF007F08831603178C052B
:1010E6008312031303108B1F79287A287B28031495
:1010F6008B13831603170C1555308D00AA308D00FF
:101106008C140C1183120313031C8A288B288C2839
:101116008B170800831603138617861B93289728B8
:101126008316031306179A28831603130613061B42
:101136009D28A128831603138616A4288316031355
:101146008612861AA728AB28831603130616AE281E
:1011560083160313061283120313861306138612CD
:101166000612831603138113F0309500123083168E
:1011760003178900F0308316031396008B150800B9
:10118600F9000230F2000030F3007908033E8400D3
:1011960083130008F400840A0008F5007908840027
:1011A6000008F60001300310F60DFF3E031DD62899
:1011B6000310760D7407F70075080318013EF80052
:1011C60072087707840073080318730A7807831276
:1011D6000313FF000A128A1100230A128A15F0006F
:1011E6000A128A1100230A128A15F10008008316D2
:1011F6000313E6008312031307100F2908300A129F
:101206008A15A6210A128A1521290C300A128A1576
:10121600A6210A128A152129831603136608E400FB
:10122600E5016508003A0319192921296408013ADC
:1012360003190129033A03190829212983160313DF
:1012460063080A128A15A6210A128A150C3083161B
:101256000313E400E40B2D29000008007708780446
:101266000319362937296629FB01FB0A452901306E
:101276000310F70DF80DFF3E031D3B290130FF005B
:101286007F08FB07F81F482949293A2978087A0276
:10129600031D4F2977087902031C5229532959291E
:1012A6007708F9027808031CFA03FA0201300310E2
:1012B600F80CF70CFF3E031D5A290130FB02031DF3
:1012C6006529662949297A08F8007908F70008008F
:1012D60083160313061086100611071187100710D0
:1012E60083120313061086100611071187100710C4
:1012F60002300A128A15A6210A128A1508300A1225
:101306008A15A6210A128A1500300A128A15A62104
:101316000A128A1500300A128A15A6210A128A159F
:101326000C300A128A15A6210A128A1500300A12F2
:101336008A15A6210A128A1506300A128A15A621CE
:101346000A128A15080083160313E200621CAC29F0
:10135600AD29B129831203130715B4298312031388
:10136600071183160313E21CB929BA29BE29831271
:1013760003130615C12983120313061183160313DB
:10138600621DC629C729CB29831203138614CE29C9
:1013960083120313861083160313E21DD329D4295F
:1013A600D829831203130614DB29831203130610AC
:1013B6000C3083160313E100E10BDF2900008312D2
:1013C6000313871487100800F501F60170087104ED
:1013D6000319EE29EF29262AF401F40AFD29013022
:1013E6000310F00DF10DFF3E031DF3290130FF0040
:1013F6007F08F407F11F002A012AF22901300310A1
:10140600F50DF60DFF3E031D022A71087302031D3A
:101416000E2A70087202031C112A122A192A700851
:10142600F2027108031CF303F30275140130031072
:10143600F10CF00CFF3E031D1A2A0130F402031DC5
:10144600252A262A012A7608F1007508F0000800E8
:10145600831203130714652A7308FF0072088400B9
:101466000A128A1100230A128A15F40004300310A6
:10147600F40CFF3E031D3A2A7408F50075080A1697
:101486008A114E270A128A150D30F400F40B492AE8
:10149600730883120313FF00720884000A128A116C
:1014A60000230A128A150A168A114E270A128A156D
:1014B6000D30F400F40B5D2A0130F2070318F30A2D
:1014C6000030F307730883120313FF0072088400C9
:1014D6000A128A1100230A128A15003A031D742A79
:1014E600752A2F2A080083120313D800AE2A67082C
:1014F60003197E2A7F2AC12A0130E70204300A1224
:101506008A113E200A128A15C12A6A08FF3EFC008B
:10151600FF3003180030FD007D08803A803C031D33
:10152600962A7C0867020318992A9A2AC12A01304A
:10153600FF007F0883120313E70704300A128A119B
:101546003E200A128A15C12A01300A128A113E204B
:101556000A128A15C12A5808FC00FD017D08003AC6
:101566000319B62AC12A7C08023A0319A72A013AA6
:1015760003197A2A073A0319882AC12A0800F501AD
:10158600F31FC62AC72ACE2AF209F309F20A03195B
:10159600F30AF501F50AF11FD12AD22AD72AF00952
:1015A600F109F00A0319F10A700871040319DC2A1B
:1015B600DD2A0C2BF401F40AEB2A01300310F00D9E
:1015C600F10DFF3E031DE12A0130FF007F08F407FD
:1015D600F11FEE2AEF2AE02A71087302031DF52A8D
:1015E60070087202031CF82AF92AFF2A7008F20210
:1015F6007108031CF303F30201300310F10CF00C25
:10160600FF3E031D002B0130F402031D0B2B0C2B98
:10161600EF2A75080319102B112B162BF209F30963
:10162600F20A0319F30A7308F1007208F0000800C1
:101636003A308400C13083120313B6000408B700A1
:101646000930B8003608840083130008B900B60ACA
:101656003708840039088000B70AB80B252B3408F0
:10166600F9003308F8000A30FA000030FB000A12CD
:101676008A1529200A128A157B0883120313C600CD
:101686007A08C5007908C4007808C300B330A00002
:101696008430A1003508013EA20000300318013055
:1016A600A3004608A5004508A4004408A70043086F
:1016B600A6003A300A128A113D260A128A158312AA
:1016C600031335080A128A11DB220A128A153A30E8
:1016D600F2000030F3000A128A152B220A128A152C
:1016E6000800F70108300A168A1155260A128A15CB
:1016F600F3007308F1007107F50000300A168A112D
:1017060055260A128A15F4007408831203139900E9
:101716000730F2007D30F100F10B8F2BF20B8F2B8F
:101726008312031399010730F2007D30F100F10BAB
:101736009A2BF20B9A2BCA2B7708113E0A168A119E
:1017460055260A128A15F6007608831203139900A5
:101756000730F2007D30F100F10BAF2BF20BAF2B0F
:101766007708103E0A168A1155260A128A15F600BF
:1017760076088312031399000730F2007D30F100DA
:10178600F10BC32BF20BC32B7708023EF70075084B
:101796007702031CCF2BD02B9F2B0800F501F11FDE
:1017A600D52BD62BDD2BF009F109F00A0319F10A26
:1017B600F501F50AF31FE02BE12BEA2BF209F309F9
:1017C600F20A0319F30A0130FF007F08F506F60155
:1017D600F701700871040319F12BF22B292CF4017F
:1017E600F40A002C01300310F00DF10DFF3E031D2D
:1017F600F62B0130FF007F08F407F11F032C042CA1
:10180600F52B01300310F60DF70DFF3E031D052CD9
:1018160071087302031D112C70087202031C142C2C
:10182600152C1C2C7008F2027108031CF303F3023A
:10183600761401300310F10CF00CFF3E031D1D2C35
:101846000130F402031D282C292C042C75080319D9
:101856002D2C2E2C332CF609F709F60A0319F70A54
:101866007708F1007608F000080083120313DE0003
:101876007B2C5E080A168A11CC250A128A15A02C22
:101886005E080A128A1142270A128A15A02C5E08DF
:101896000A128A11EE270A128A15A02C5E080A126D
:1018A6008A11EE270A128A15A02C5E080A128A15DA
:1018B60076220A128A15A02C5E080A168A110C26B0
:1018C6000A128A15A02C5E080A168A11FE250A122B
:1018D6008A15A02C5E080A128A1575250A128A1521
:1018E600A02C5E080A128A150A250A128A15A02C4F
:1018F6006808DC00DD015D08003A0319832CA02C82
:101906005C08003A03193C2C013A0319432C033AAC
:1019160003194A2C013A0319512C073A0319582C7A
:10192600013A03195F2C033A0319662C013A03198D
:101936006D2C0F3A0319742CA02C08008312031384
:101946000714F32C83160313640883120313FF0092
:101956008316031363088400831203130A128A1181
:1019660000230A128A1583160313E50004300310B8
:10197600E50CFF3E031DBA2C6508E60066080A1250
:101986008A15A6210A128A150C3083160313E50060
:10199600E50BCB2C00008316031364088312031394
:1019A600FF008316031363088400831203130A12CD
:1019B6008A1100230A128A150A128A15A6210A120A
:1019C6008A150C3083160313E500E50BE82C00009E
:1019D600013083160313E3070318E40A0030E40713
:1019E60083160313640883120313FF00831603137D
:1019F60063088400831203130A128A1100230A1251
:101A06008A15003A031D082D092DA52C08008312FE
:101A16000313D8005E2DD4300A168A112D260A1219
:101A26008A15FC00FC1B182D192D742D08300A127E
:101A36008A113E200A128A15742DD4300A128A158C
:101A460003200A128A15FC00FC1B2A2D2B2D742D4F
:101A560008300A128A113E200A128A15742DD430D3
:101A66000A168A11E6250A128A1501300A128A1107
:101A76003E200A128A15742DD4300A168A11DB25E7
:101A86000A128A15D4300A128A15C3200A128A1538
:101A9600700883120313EB006B08F00000300A167F
:101AA6008A1178270A128A1501300A128A113E20F5
:101AB6000A128A15742D5808FC00FD017D08003AAB
:101AC6000319662D742D7C08013A03193F2D033A3C
:101AD6000319322D013A03190E2D073A0319202D49
:101AE600742D080083120313D800CE2DCF300A16AA
:101AF6008A112D260A128A15FC00FC1B832D842DC3
:101B0600E42D07300A128A113E200A128A15E42DA6
:101B1600CF300A128A1503200A128A15FC00FC1B14
:101B2600952D962DE42D07300A128A113E200A12B1
:101B36008A15E42DCF300A168A11E6250A128A156F
:101B460001300A128A113E200A128A15E42DCF307E
:101B56000A168A11DB250A128A15CF300A128A154F
:101B6600C3200A128A15700883120313E900690854
:101B7600FC00FD017C08F2007D08F30002300A1625
:101B86008A111A260A128A1501300A128A113E2073
:101B96000A128A15E42D5808FC00FD017D08003A5A
:101BA6000319D62DE42D7C08013A0319AA2D033A10
:101BB60003199D2D013A0319792D073A03198B2D27
:101BC600E42D080083160317A1002108840083135F
:101BD6008001800AA0014D2E023083160313E30014
:101BE6000030E400831603172108033E8400000832
:101BF60083160313E500840A0008E600831603171C
:101C0600200883160313E70001300310E70DFF3E9B
:101C1600031D082E0310670D6507E8006608031804
:101C2600013EE90063086807840064080318640A33
:101C3600690783120313FF000A128A1100230A128E
:101C46008A1583160313EA00831203130A128A11F4
:101C560000230A128A1583160313EB0062086B062B
:101C6600031D372E61086A06031D3A2E3B2E472EAA
:101C76008316031721088400200883138000210A95
:101C8600840020088000572E0130FF007F0883164D
:101C96000317A0072108023E8400831300082002D0
:101CA600031C562E572EEF2D0800F6000030FA00C2
:101CB6000030F9000030F8000030F7007608243EC6
:101CC600840083300318013E83120313FF000A12B7
:101CD6008A1100230A128A15F200F20DF20D1F086E
:101CE6007206C33972069F000630F200F20B792E97
:101CF6000000FB01FC01831203139F149F18842E1E
:101D0600852E812E831603131E08F20083120313F9
:101D16001E08F3000030F31BFF30F400F5007208D4
:101D2600F707730803110318013E03199B2EF807E2
:101D3600740803110318013E0319A22EF90775084A
:101D460003110318013E0319A92EFA070130FB07F8
:101D56000318FC0A0030FC0700307C02203003190F
:101D66007B02031CB72EB82E7E2E7708F200780869
:101D7600F3007908F4007A08F50005300310F50C35
:101D8600F40CF30CF20CFF3E031DC12E7308F10098
:101D96007208F0000800831603138C1ED32ED42E6F
:101DA600E52E831203138C1ED92EDA2EE52E413032
:101DB6001A06031DDF2EE02EE52E0A128A1574235D
:101DC6000A128A158B1EE82EE92E312F0B1DEC2EDA
:101DD600ED2E312F831203136908DF00E0015F083F
:101DE60083160313DE00831203136008831603139E
:101DF600DF005F08831203136602031D082F831694
:101E060003135E08831203136502031C0B2F0C2FAA
:101E1600282F02306806031D112F122F182F0A16BD
:101E26008A11A5270A128A15232F03306806031D77
:101E36001D2F1E2F232F0A128A155A270A128A15BA
:101E460083120313E501E6012E2F0130E50703187F
:101E5600E60A0030E607273081000B118B1D342F70
:101E6600352F4D2F0B1C382F392F4D2F0A168A115F
:101E760003270A128A1583160313E0006008031964
:101E8600452F462F4C2F60080A128A1538240A124D
:101E96008A150B10831203136408FF0063088A0077
:101EA60062088400610E8300FE0E7E0E0900831216
:101EB60003136B08F0006A080A168A1140260A12F4
:101EC6008A1583120313CB000A168A119B260A125F
:101ED6008A157830831203134B020318732F742F5D
:101EE600F52FCC01E22F4C080A128A1558260A1241
:101EF6008A15710883120313CE007008CD004A08B4
:101F06004E02031D882F49084D0203188B2F8C2F74
:101F16009A2F4E08ED004D08EC004E08F3004D08D0
:101F2600F20004300A168A111A260A128A1583123A
:101F360003134E084802031DA22F4D08470203183B
:101F4600A52FA62FBC2F4E0883160313CD00831290
:101F560003134D0883160313CC00831203134E0894
:101F6600F3004D08F20006300A168A111A260A12E4
:101F76008A15831203134E08F3004D08F2004B082E
:101F8600FD007D07103E0A168A111A260A128A15C6
:101F96000130FF007F0883120313CB074E08B400FD
:101FA6004D08B3004C08B5000A128A151B230A1205
:101FB6008A150130FF007F0883120313CC076B08D4
:101FC6004C02031CE72FE82F762F0130FF007F0815
:101FD600EA076A08F00008300A168A1178270A12FA
:101FE6008A15FF2F8B120030F2008430F3000A129C
:0A1FF6008A152B220A128A15080032
:102B8C00F000700A840083130008080001300A1258
:102B9C008A113E200A168A11080064008001840AFA
:102BAC000406031900340406D42DF000700A8400C6
:102BBC0083130008FF00700884007F088000080061
:102BCC00F0007008840083130008FF00700A840072
:102BDC007F088000080027308312031381008316BE
:102BEC00031381128111073081040B118B12080021
:102BFC00FC0002307C06031D042E052E0B2E01302A
:102C0C000A128A113E200A168A110800FC000230B2
:102C1C007C06031D122E132E192E01300A128A1156
:102C2C003E200A168A110800F4007308F00074089C
:102C3C000A168A1178270A168A117208F00074088D
:102C4C00013E0A168A1178270A168A110800F0002C
:102C5C00700A8400831300080319352E362E3E2E7D
:102C6C00700A840001308002700A840000083F2E34
:102C7C00FF300800F200F101721C452E462E4A2E40
:102C8C007008FF007F08F1070310F00D0310F20C21
:102C9C007208031D522E532E422E71080800F000AC
:102CAC006400831603178C185C2E5D2E562E70084C
:102CBC00831203178D003F30FF007F088316031724
:102CCC008C050C14831203170C08080083160313CD
:102CDC00E5006408E10065080A128A1558200A16F6
:102CEC008A11831603136308E1006508013E0A127A
:102CFC008A1558200A168A11080083160313E4005B
:102D0C006408840083138001640A840080016408D1
:102D1C00023E8400630880006408033E840061085E
:102D2C008000840A620880000800831203130710D5
:102D3C0000300A168A114E270A168A1101300A161B
:102D4C008A114E270A168A110330F3009730F200CD
:102D5C00F20BAE2EF30BAE2EB32E0800FF30831603
:102D6C00031385001F308316031788008316031383
:102D7C009F121F16831203131F083F3940389F0000
:102D8C00831603139F17831203131F140800831653
:102D9C000317871183160313071387179816181236
:102DAC008312031398171816831603138C160B171C
:102DBC001811193099001813831203138C12080080
:102DCC0083160313E1006400831603178C18EF2E8F
:102DDC00F22E83160313E92E831603136108831254
:102DEC0003178D003F30FF007F08831603178C05F7
:102DFC000C14831203170C08080083120313061A11
:102E0C00082F092F0B2F0130272F861A0E2F0F2F6B
:102E1C00112F0230272F061B142F152F172F0330BD
:102E2C00272F861B1A2F1B2F1D2F0430272F823084
:102E3C00F100DD30F000F00B212FF10B212F262FAC
:102E4C0000300800F5007508013E0A168A11552657
:102E5C000A168A11F300F4017308F6007408F700DF
:102E6C0075080A168A1155260A168A11F300F40100
:102E7C007308F400F30176087307F600770803185B
:102E8C00770A7407F7007708F2007608F10008005B
:102E9C00F100711C522F532F572F83120313071558
:102EAC005A2F831203130711F11C5D2F5E2F602F15
:102EBC000615612F0611711D642F652F672F86145F
:102ECC00682F8610F11D6B2F6C2F6E2F06146F2F31
:102EDC0006100D30F000F00B712F831203138714C2
:102EEC0087100800F100831603178C187E2F7F2F94
:102EFC00792F7108831203178D0070088C003F30F6
:102F0C00FF007F08831603178C058312031303102D
:102F1C008B1F912F922F932F03148B138316031750
:102F2C000C1555308D00AA308D008C140C118312A9
:102F3C000313031CA22FA32FA42F8B1708000A1610
:102F4C008A119B260A168A1183120313C901CB2FEF
:102F5C0049080A128A1558260A168A117108831212
:102F6C000313C8007008C7004808B4004708B30032
:102F7C004908B5000A128A151B230A168A1101305A
:102F8C00FF007F0883120313C9076B084902031C57
:102F9C00D02FD12FAE2F0800F5008312031307108A
:102FAC00E52F08300A168A114E270A168A11F52FBA
:102FBC000C300A168A114E270A168A11F52F75083D
:102FCC00F300F4017408003A0319ED2FF52F730880
:102FDC00013A0319D72F033A0319DE2FF52F720884
:102FEC000A168A114E270A168A110D30F300F30BBC
:042FFC00FD2F08009D
:08400000FF3FFF3FFF3FFF3FC0
:04400E00E12CFF3F63
:00000001FF
